{
  "address": "0xff1787fF7706e19A24ce8b29A22d5cB8A290BF01",
  "abi": [
    {
      "inputs": [],
      "stateMutability": "nonpayable",
      "type": "constructor"
    },
    {
      "inputs": [
        {
          "internalType": "uint256",
          "name": "eventId",
          "type": "uint256"
        }
      ],
      "name": "buyTicket",
      "outputs": [],
      "stateMutability": "payable",
      "type": "function"
    },
    {
      "inputs": [
        {
          "internalType": "string",
          "name": "name",
          "type": "string"
        },
        {
          "internalType": "string",
          "name": "description",
          "type": "string"
        },
        {
          "internalType": "uint256",
          "name": "date",
          "type": "uint256"
        },
        {
          "internalType": "uint256",
          "name": "ticketPrice",
          "type": "uint256"
        },
        {
          "internalType": "uint256",
          "name": "totalTickets",
          "type": "uint256"
        }
      ],
      "name": "createEvent",
      "outputs": [],
      "stateMutability": "nonpayable",
      "type": "function"
    },
    {
      "inputs": [
        {
          "internalType": "uint256",
          "name": "",
          "type": "uint256"
        }
      ],
      "name": "events",
      "outputs": [
        {
          "internalType": "string",
          "name": "name",
          "type": "string"
        },
        {
          "internalType": "string",
          "name": "description",
          "type": "string"
        },
        {
          "internalType": "uint256",
          "name": "date",
          "type": "uint256"
        },
        {
          "internalType": "uint256",
          "name": "ticketPrice",
          "type": "uint256"
        },
        {
          "internalType": "uint256",
          "name": "totalTickets",
          "type": "uint256"
        },
        {
          "internalType": "uint256",
          "name": "ticketsSold",
          "type": "uint256"
        }
      ],
      "stateMutability": "view",
      "type": "function"
    },
    {
      "inputs": [],
      "name": "getEventCount",
      "outputs": [
        {
          "internalType": "uint256",
          "name": "",
          "type": "uint256"
        }
      ],
      "stateMutability": "view",
      "type": "function"
    },
    {
      "inputs": [
        {
          "internalType": "uint256",
          "name": "eventId",
          "type": "uint256"
        }
      ],
      "name": "getEventDetails",
      "outputs": [
        {
          "internalType": "string",
          "name": "name",
          "type": "string"
        },
        {
          "internalType": "string",
          "name": "description",
          "type": "string"
        },
        {
          "internalType": "uint256",
          "name": "date",
          "type": "uint256"
        },
        {
          "internalType": "uint256",
          "name": "ticketPrice",
          "type": "uint256"
        },
        {
          "internalType": "uint256",
          "name": "totalTickets",
          "type": "uint256"
        },
        {
          "internalType": "uint256",
          "name": "ticketsSold",
          "type": "uint256"
        }
      ],
      "stateMutability": "view",
      "type": "function"
    },
    {
      "inputs": [
        {
          "internalType": "uint256",
          "name": "eventId",
          "type": "uint256"
        },
        {
          "internalType": "address",
          "name": "user",
          "type": "address"
        }
      ],
      "name": "getUserTicketCount",
      "outputs": [
        {
          "internalType": "uint256",
          "name": "",
          "type": "uint256"
        }
      ],
      "stateMutability": "view",
      "type": "function"
    },
    {
      "inputs": [],
      "name": "owner",
      "outputs": [
        {
          "internalType": "address payable",
          "name": "",
          "type": "address"
        }
      ],
      "stateMutability": "view",
      "type": "function"
    },
    {
      "inputs": [
        {
          "internalType": "uint256",
          "name": "",
          "type": "uint256"
        },
        {
          "internalType": "address",
          "name": "",
          "type": "address"
        }
      ],
      "name": "ticketsOwned",
      "outputs": [
        {
          "internalType": "uint256",
          "name": "",
          "type": "uint256"
        }
      ],
      "stateMutability": "view",
      "type": "function"
    },
    {
      "inputs": [
        {
          "internalType": "uint256",
          "name": "eventId",
          "type": "uint256"
        },
        {
          "internalType": "address",
          "name": "attendee",
          "type": "address"
        }
      ],
      "name": "verifyTicket",
      "outputs": [
        {
          "internalType": "bool",
          "name": "",
          "type": "bool"
        }
      ],
      "stateMutability": "view",
      "type": "function"
    },
    {
      "inputs": [],
      "name": "withdrawFunds",
      "outputs": [],
      "stateMutability": "nonpayable",
      "type": "function"
    }
  ],
  "transactionHash": "0x9fe4e92ebb4b13bd84f43f948dd92020d83f1e46c30e986cd0215ea0aa01e240",
  "args": [],
  "numDeployments": 1,
  "solcInputHash": "e96c9c63b0e297ce1e5db8378b9e862d",
  "bytecode": "0x608060405234801561001057600080fd5b50600280546001600160a01b03191633179055610c9c806100326000396000f3fe6080604052600436106100915760003560e01c806383ab96f01161005957806383ab96f0146101615780638da5cb5b14610181578063d9e48f5c146101b9578063ec38d5a0146101ce578063f5851a8d146101ee57600080fd5b80630b7914301461009657806324600fc3146100d157806338df3f5b146100e85780633c2fc56c1461012e57806367dd74ca1461014e575b600080fd5b3480156100a257600080fd5b506100b66100b1366004610868565b610243565b6040516100c8969594939291906108c7565b60405180910390f35b3480156100dd57600080fd5b506100e661039f565b005b3480156100f457600080fd5b50610120610103366004610912565b600160209081526000928352604080842090915290825290205481565b6040519081526020016100c8565b34801561013a57600080fd5b506100e66101493660046109f1565b61040e565b6100e661015c366004610868565b6104f1565b34801561016d57600080fd5b5061012061017c366004610912565b610680565b34801561018d57600080fd5b506002546101a1906001600160a01b031681565b6040516001600160a01b0390911681526020016100c8565b3480156101c557600080fd5b50600054610120565b3480156101da57600080fd5b506100b66101e9366004610868565b6106cd565b3480156101fa57600080fd5b50610233610209366004610912565b60009182526001602090815260408084206001600160a01b03939093168452919052902054151590565b60405190151581526020016100c8565b6000818154811061025357600080fd5b906000526020600020906006020160009150905080600001805461027690610a70565b80601f01602080910402602001604051908101604052809291908181526020018280546102a290610a70565b80156102ef5780601f106102c4576101008083540402835291602001916102ef565b820191906000526020600020905b8154815290600101906020018083116102d257829003601f168201915b50505050509080600101805461030490610a70565b80601f016020809104026020016040519081016040528092919081815260200182805461033090610a70565b801561037d5780601f106103525761010080835404028352916020019161037d565b820191906000526020600020905b81548152906001019060200180831161036057829003601f168201915b5050505050908060020154908060030154908060040154908060050154905086565b6002546001600160a01b031633146103d25760405162461bcd60e51b81526004016103c990610aaa565b60405180910390fd5b6002546040516001600160a01b03909116904780156108fc02916000818181858888f1935050505015801561040b573d6000803e3d6000fd5b50565b6002546001600160a01b031633146104385760405162461bcd60e51b81526004016103c990610aaa565b6040805160c081018252868152602081018690529081018490526060810183905260808101829052600060a082018190528054600181018255908052815160069091027f290decd9548b62a8d60345a988386fc84ba6bc95484008f6362f93160ef3e563019081906104aa9082610b40565b50602082015160018201906104bf9082610b40565b5060408201518160020155606082015181600301556080820151816004015560a0820151816005015550505050505050565b60005481106105125760405162461bcd60e51b81526004016103c990610c00565b600080828154811061052657610526610c2f565b90600052602060002090600602019050806002015442106105895760405162461bcd60e51b815260206004820152601b60248201527f4576656e742068617320616c7265616479206f636375727265642e000000000060448201526064016103c9565b806003015434146105dc5760405162461bcd60e51b815260206004820152601760248201527f496e636f7272656374207469636b65742070726963652e00000000000000000060448201526064016103c9565b80600401548160050154106106335760405162461bcd60e51b815260206004820152601b60248201527f416c6c207469636b6574732068617665206265656e20736f6c642e000000000060448201526064016103c9565b60018160050160008282546106489190610c45565b909155505060008281526001602081815260408084203385529091528220805491929091610677908490610c45565b90915550505050565b6000805483106106a25760405162461bcd60e51b81526004016103c990610c00565b5060008281526001602090815260408083206001600160a01b03851684529091529020545b92915050565b60608060008060008060008054905087106106fa5760405162461bcd60e51b81526004016103c990610c00565b600080888154811061070e5761070e610c2f565b906000526020600020906006020190508060000181600101826002015483600301548460040154856005015485805461074690610a70565b80601f016020809104026020016040519081016040528092919081815260200182805461077290610a70565b80156107bf5780601f10610794576101008083540402835291602001916107bf565b820191906000526020600020905b8154815290600101906020018083116107a257829003601f168201915b505050505095508480546107d290610a70565b80601f01602080910402602001604051908101604052809291908181526020018280546107fe90610a70565b801561084b5780601f106108205761010080835404028352916020019161084b565b820191906000526020600020905b81548152906001019060200180831161082e57829003601f168201915b505050505094509650965096509650965096505091939550919395565b60006020828403121561087a57600080fd5b5035919050565b6000815180845260005b818110156108a75760208185018101518683018201520161088b565b506000602082860101526020601f19601f83011685010191505092915050565b60c0815260006108da60c0830189610881565b82810360208401526108ec8189610881565b9150508560408301528460608301528360808301528260a0830152979650505050505050565b6000806040838503121561092557600080fd5b8235915060208301356001600160a01b038116811461094357600080fd5b809150509250929050565b634e487b7160e01b600052604160045260246000fd5b600082601f83011261097557600080fd5b813567ffffffffffffffff808211156109905761099061094e565b604051601f8301601f19908116603f011681019082821181831017156109b8576109b861094e565b816040528381528660208588010111156109d157600080fd5b836020870160208301376000602085830101528094505050505092915050565b600080600080600060a08688031215610a0957600080fd5b853567ffffffffffffffff80821115610a2157600080fd5b610a2d89838a01610964565b96506020880135915080821115610a4357600080fd5b50610a5088828901610964565b959895975050505060408401359360608101359360809091013592509050565b600181811c90821680610a8457607f821691505b602082108103610aa457634e487b7160e01b600052602260045260246000fd5b50919050565b60208082526027908201527f4f6e6c7920746865206f776e65722063616e20706572666f726d20746869732060408201526630b1ba34b7b71760c91b606082015260800190565b601f821115610b3b57600081815260208120601f850160051c81016020861015610b185750805b601f850160051c820191505b81811015610b3757828155600101610b24565b5050505b505050565b815167ffffffffffffffff811115610b5a57610b5a61094e565b610b6e81610b688454610a70565b84610af1565b602080601f831160018114610ba35760008415610b8b5750858301515b600019600386901b1c1916600185901b178555610b37565b600085815260208120601f198616915b82811015610bd257888601518255948401946001909101908401610bb3565b5085821015610bf05787850151600019600388901b60f8161c191681555b5050505050600190811b01905550565b60208082526015908201527422bb32b73a103237b2b9903737ba1032bc34b9ba1760591b604082015260600190565b634e487b7160e01b600052603260045260246000fd5b808201808211156106c757634e487b7160e01b600052601160045260246000fdfea26469706673582212202783d887b4e2db939736c9ff0133d2410eff7d5e9f067361ecb0da0ae8735c9b64736f6c63430008110033",
  "devdoc": {
    "kind": "dev",
    "methods": {},
    "version": 1
  },
  "userdoc": {
    "kind": "user",
    "methods": {},
    "version": 1
  },
  "storageLayout": {
    "storage": [
      {
        "astId": 18,
        "contract": "contracts/EventTicket.sol:EventTicket",
        "label": "events",
        "offset": 0,
        "slot": "0",
        "type": "t_array(t_struct(Event)14_storage)dyn_storage"
      },
      {
        "astId": 24,
        "contract": "contracts/EventTicket.sol:EventTicket",
        "label": "ticketsOwned",
        "offset": 0,
        "slot": "1",
        "type": "t_mapping(t_uint256,t_mapping(t_address,t_uint256))"
      },
      {
        "astId": 26,
        "contract": "contracts/EventTicket.sol:EventTicket",
        "label": "owner",
        "offset": 0,
        "slot": "2",
        "type": "t_address_payable"
      }
    ],
    "types": {
      "t_address": {
        "encoding": "inplace",
        "label": "address",
        "numberOfBytes": "20"
      },
      "t_address_payable": {
        "encoding": "inplace",
        "label": "address payable",
        "numberOfBytes": "20"
      },
      "t_array(t_struct(Event)14_storage)dyn_storage": {
        "base": "t_struct(Event)14_storage",
        "encoding": "dynamic_array",
        "label": "struct EventTicket.Event[]",
        "numberOfBytes": "32"
      },
      "t_mapping(t_address,t_uint256)": {
        "encoding": "mapping",
        "key": "t_address",
        "label": "mapping(address => uint256)",
        "numberOfBytes": "32",
        "value": "t_uint256"
      },
      "t_mapping(t_uint256,t_mapping(t_address,t_uint256))": {
        "encoding": "mapping",
        "key": "t_uint256",
        "label": "mapping(uint256 => mapping(address => uint256))",
        "numberOfBytes": "32",
        "value": "t_mapping(t_address,t_uint256)"
      },
      "t_string_storage": {
        "encoding": "bytes",
        "label": "string",
        "numberOfBytes": "32"
      },
      "t_struct(Event)14_storage": {
        "encoding": "inplace",
        "label": "struct EventTicket.Event",
        "members": [
          {
            "astId": 3,
            "contract": "contracts/EventTicket.sol:EventTicket",
            "label": "name",
            "offset": 0,
            "slot": "0",
            "type": "t_string_storage"
          },
          {
            "astId": 5,
            "contract": "contracts/EventTicket.sol:EventTicket",
            "label": "description",
            "offset": 0,
            "slot": "1",
            "type": "t_string_storage"
          },
          {
            "astId": 7,
            "contract": "contracts/EventTicket.sol:EventTicket",
            "label": "date",
            "offset": 0,
            "slot": "2",
            "type": "t_uint256"
          },
          {
            "astId": 9,
            "contract": "contracts/EventTicket.sol:EventTicket",
            "label": "ticketPrice",
            "offset": 0,
            "slot": "3",
            "type": "t_uint256"
          },
          {
            "astId": 11,
            "contract": "contracts/EventTicket.sol:EventTicket",
            "label": "totalTickets",
            "offset": 0,
            "slot": "4",
            "type": "t_uint256"
          },
          {
            "astId": 13,
            "contract": "contracts/EventTicket.sol:EventTicket",
            "label": "ticketsSold",
            "offset": 0,
            "slot": "5",
            "type": "t_uint256"
          }
        ],
        "numberOfBytes": "192"
      },
      "t_uint256": {
        "encoding": "inplace",
        "label": "uint256",
        "numberOfBytes": "32"
      }
    }
  }
}