{
  "address": "0xd688e9197e1631aE7e2a06179D5C92cC2ae278CC",
  "abi": [
    {
      "inputs": [
        {
          "internalType": "contract IERC20",
          "name": "_token1",
          "type": "address"
        },
        {
          "internalType": "contract IERC20",
          "name": "_token2",
          "type": "address"
        }
      ],
      "stateMutability": "nonpayable",
      "type": "constructor"
    },
    {
      "inputs": [
        {
          "internalType": "uint256",
          "name": "token1Amount",
          "type": "uint256"
        },
        {
          "internalType": "uint256",
          "name": "token2Amount",
          "type": "uint256"
        }
      ],
      "name": "swap",
      "outputs": [],
      "stateMutability": "nonpayable",
      "type": "function"
    },
    {
      "inputs": [
        {
          "internalType": "uint256",
          "name": "token1Amount",
          "type": "uint256"
        },
        {
          "internalType": "uint256",
          "name": "token2Amount",
          "type": "uint256"
        }
      ],
      "name": "swapToken1ForToken2",
      "outputs": [],
      "stateMutability": "nonpayable",
      "type": "function"
    },
    {
      "inputs": [
        {
          "internalType": "uint256",
          "name": "token2Amount",
          "type": "uint256"
        },
        {
          "internalType": "uint256",
          "name": "token1Amount",
          "type": "uint256"
        }
      ],
      "name": "swapToken2ForToken1",
      "outputs": [],
      "stateMutability": "nonpayable",
      "type": "function"
    },
    {
      "inputs": [],
      "name": "token1",
      "outputs": [
        {
          "internalType": "contract IERC20",
          "name": "",
          "type": "address"
        }
      ],
      "stateMutability": "view",
      "type": "function"
    },
    {
      "inputs": [],
      "name": "token2",
      "outputs": [
        {
          "internalType": "contract IERC20",
          "name": "",
          "type": "address"
        }
      ],
      "stateMutability": "view",
      "type": "function"
    }
  ],
  "transactionHash": "0xd08a83e2b89e9ccb7d94bdfb8b109c3a7831e9f0483512971a408662be8ef5fe",
  "args": [
    "0xa47f43de2f9623acb395ca4905746496d2014d57",
    "0xfe97e85d13abd9c1c33384e796f10b73905637ce"
  ],
  "numDeployments": 1,
  "solcInputHash": "185055a7030f486c950e9041a479f70f",
  "bytecode": "0x608060405234801561001057600080fd5b506040516107eb3803806107eb83398101604081905261002f9161007c565b600080546001600160a01b039384166001600160a01b031991821617909155600180549290931691161790556100af565b80516001600160a01b038116811461007757600080fd5b919050565b6000806040838503121561008f57600080fd5b61009883610060565b91506100a660208401610060565b90509250929050565b61072d806100be6000396000f3fe608060405234801561001057600080fd5b50600436106100575760003560e01c806325be124e1461005c5780635886af771461008b57806392f92d6b146100a0578063d21220a7146100b3578063d96073cf1461008b575b600080fd5b60015461006f906001600160a01b031681565b6040516001600160a01b03909116815260200160405180910390f35b61009e610099366004610693565b6100c6565b005b61009e6100ae366004610693565b6103b1565b60005461006f906001600160a01b031681565b6000546040516370a0823160e01b815233600482015283916001600160a01b0316906370a0823190602401602060405180830381865afa15801561010e573d6000803e3d6000fd5b505050506040513d601f19601f8201168201806040525081019061013291906106b5565b10156101795760405162461bcd60e51b81526020600482015260116024820152704e6f7420656e6f75676820546f6b656e3160781b60448201526064015b60405180910390fd5b6001546040516370a0823160e01b815230600482015282916001600160a01b0316906370a0823190602401602060405180830381865afa1580156101c1573d6000803e3d6000fd5b505050506040513d601f19601f820116820180604052508101906101e591906106b5565b10156102335760405162461bcd60e51b815260206004820152601d60248201527f4e6f7420656e6f75676820546f6b656e3220696e20636f6e74726163740000006044820152606401610170565b6000546040516323b872dd60e01b8152336004820152306024820152604481018490526001600160a01b03909116906323b872dd906064016020604051808303816000875af115801561028a573d6000803e3d6000fd5b505050506040513d601f19601f820116820180604052508101906102ae91906106ce565b6102f35760405162461bcd60e51b8152602060048201526016602482015275151bdad95b8c481d1c985b9cd9995c8819985a5b195960521b6044820152606401610170565b60015460405163a9059cbb60e01b8152336004820152602481018390526001600160a01b039091169063a9059cbb906044016020604051808303816000875af1158015610344573d6000803e3d6000fd5b505050506040513d601f19601f8201168201806040525081019061036891906106ce565b6103ad5760405162461bcd60e51b8152602060048201526016602482015275151bdad95b8c881d1c985b9cd9995c8819985a5b195960521b6044820152606401610170565b5050565b6001546040516370a0823160e01b815233600482015283916001600160a01b0316906370a0823190602401602060405180830381865afa1580156103f9573d6000803e3d6000fd5b505050506040513d601f19601f8201168201806040525081019061041d91906106b5565b101561045f5760405162461bcd60e51b81526020600482015260116024820152702737ba1032b737bab3b4102a37b5b2b71960791b6044820152606401610170565b6000546040516370a0823160e01b815230600482015282916001600160a01b0316906370a0823190602401602060405180830381865afa1580156104a7573d6000803e3d6000fd5b505050506040513d601f19601f820116820180604052508101906104cb91906106b5565b10156105195760405162461bcd60e51b815260206004820152601d60248201527f4e6f7420656e6f75676820546f6b656e3120696e20636f6e74726163740000006044820152606401610170565b6001546040516323b872dd60e01b8152336004820152306024820152604481018490526001600160a01b03909116906323b872dd906064016020604051808303816000875af1158015610570573d6000803e3d6000fd5b505050506040513d601f19601f8201168201806040525081019061059491906106ce565b6105d95760405162461bcd60e51b8152602060048201526016602482015275151bdad95b8c881d1c985b9cd9995c8819985a5b195960521b6044820152606401610170565b60005460405163a9059cbb60e01b8152336004820152602481018390526001600160a01b039091169063a9059cbb906044016020604051808303816000875af115801561062a573d6000803e3d6000fd5b505050506040513d601f19601f8201168201806040525081019061064e91906106ce565b6103ad5760405162461bcd60e51b8152602060048201526016602482015275151bdad95b8c481d1c985b9cd9995c8819985a5b195960521b6044820152606401610170565b600080604083850312156106a657600080fd5b50508035926020909101359150565b6000602082840312156106c757600080fd5b5051919050565b6000602082840312156106e057600080fd5b815180151581146106f057600080fd5b939250505056fea264697066735822122070cafa62fa4a8c36e05886d4b8b8f1a58c8a03ca7c8711cd1399ade2c4dc54be64736f6c63430008110033",
  "devdoc": {
    "kind": "dev",
    "methods": {},
    "version": 1
  },
  "userdoc": {
    "kind": "user",
    "methods": {},
    "version": 1
  },
  "storageLayout": {
    "storage": [
      {
        "astId": 83,
        "contract": "contracts/SwapContract.sol:SwapContract",
        "label": "token1",
        "offset": 0,
        "slot": "0",
        "type": "t_contract(IERC20)77"
      },
      {
        "astId": 86,
        "contract": "contracts/SwapContract.sol:SwapContract",
        "label": "token2",
        "offset": 0,
        "slot": "1",
        "type": "t_contract(IERC20)77"
      }
    ],
    "types": {
      "t_contract(IERC20)77": {
        "encoding": "inplace",
        "label": "contract IERC20",
        "numberOfBytes": "20"
      }
    }
  }
}