{
  "address": "0xdCDd814C37859E2756215191948fB05ed1973d82",
  "abi": [
    {
      "anonymous": false,
      "inputs": [
        {
          "indexed": true,
          "internalType": "address",
          "name": "user",
          "type": "address"
        },
        {
          "indexed": false,
          "internalType": "uint256",
          "name": "amount",
          "type": "uint256"
        },
        {
          "indexed": false,
          "internalType": "uint256",
          "name": "timestamp",
          "type": "uint256"
        }
      ],
      "name": "Staked",
      "type": "event"
    },
    {
      "anonymous": false,
      "inputs": [
        {
          "indexed": true,
          "internalType": "address",
          "name": "user",
          "type": "address"
        },
        {
          "indexed": false,
          "internalType": "uint256",
          "name": "amount",
          "type": "uint256"
        },
        {
          "indexed": false,
          "internalType": "uint256",
          "name": "timestamp",
          "type": "uint256"
        }
      ],
      "name": "Unstaked",
      "type": "event"
    },
    {
      "inputs": [],
      "name": "deposit",
      "outputs": [],
      "stateMutability": "payable",
      "type": "function"
    },
    {
      "inputs": [],
      "name": "getBalance",
      "outputs": [
        {
          "internalType": "uint256",
          "name": "",
          "type": "uint256"
        }
      ],
      "stateMutability": "view",
      "type": "function"
    },
    {
      "inputs": [],
      "name": "getStakedBalance",
      "outputs": [
        {
          "internalType": "uint256",
          "name": "",
          "type": "uint256"
        }
      ],
      "stateMutability": "view",
      "type": "function"
    },
    {
      "inputs": [
        {
          "internalType": "uint256",
          "name": "_amount",
          "type": "uint256"
        }
      ],
      "name": "stake",
      "outputs": [],
      "stateMutability": "nonpayable",
      "type": "function"
    },
    {
      "inputs": [],
      "name": "unstake",
      "outputs": [],
      "stateMutability": "nonpayable",
      "type": "function"
    }
  ],
  "transactionHash": "0xf17fb97b779a39ac6d810f073d25d0c743943a908fff92124094d7c7390faa60",
  "args": [],
  "numDeployments": 1,
  "solcInputHash": "185055a7030f486c950e9041a479f70f",
  "bytecode": "0x608060405234801561001057600080fd5b50610437806100206000396000f3fe60806040526004361061004a5760003560e01c806312065fe01461004f5780632def66201461007f5780637696586714610096578063a694fc3a146100b8578063d0e30db0146100d8575b600080fd5b34801561005b57600080fd5b50336000908152602081905260409020545b60405190815260200160405180910390f35b34801561008b57600080fd5b506100946100e0565b005b3480156100a257600080fd5b503360009081526001602052604090205461006d565b3480156100c457600080fd5b506100946100d33660046103a6565b610234565b610094610324565b336000908152600160205260409020546101415760405162461bcd60e51b815260206004820152601d60248201527f4e6f207374616b65642062616c616e636520746f20776974686472617700000060448201526064015b60405180910390fd5b3360009081526002602052604090205461015e90620151806103d5565b4210156101ad5760405162461bcd60e51b815260206004820181905260248201527f5374616b696e6720706572696f64206e6f742079657420636f6d706c657465646044820152606401610138565b336000908152600160209081526040808320549183905282208054919283926101d79084906103d5565b90915550503360008181526001602052604080822091909155517f7fc4727e062e336010f2c282598ef5f14facb3de68cf8195c2f23e1454b2b74e906102299084904290918252602082015260400190565b60405180910390a250565b336000908152602081905260409020548111156102935760405162461bcd60e51b815260206004820152601d60248201527f496e73756666696369656e742062616c616e636520746f207374616b650000006044820152606401610138565b33600090815260208190526040812080548392906102b29084906103ee565b909155505033600090815260016020526040812080548392906102d69084906103d5565b90915550503360008181526002602090815260409182902042908190558251858152918201527f1449c6dd7851abc30abf37f57715f492010519147cc2652fbc38202c18a6ee909101610229565b600034116103805760405162461bcd60e51b8152602060048201526024808201527f4465706f7369742076616c7565206d75737420626520677265617465722074686044820152630616e20360e41b6064820152608401610138565b336000908152602081905260408120805434929061039f9084906103d5565b9091555050565b6000602082840312156103b857600080fd5b5035919050565b634e487b7160e01b600052601160045260246000fd5b808201808211156103e8576103e86103bf565b92915050565b818103818111156103e8576103e86103bf56fea26469706673582212209b118c152036af6f63981bea561b45d6ad416817c09689187acdc671e9fdcf1c64736f6c63430008110033",
  "devdoc": {
    "kind": "dev",
    "methods": {},
    "version": 1
  },
  "userdoc": {
    "kind": "user",
    "methods": {},
    "version": 1
  },
  "storageLayout": {
    "storage": [
      {
        "astId": 279,
        "contract": "contracts/Wallet.sol:Wallet",
        "label": "balances",
        "offset": 0,
        "slot": "0",
        "type": "t_mapping(t_address,t_uint256)"
      },
      {
        "astId": 283,
        "contract": "contracts/Wallet.sol:Wallet",
        "label": "stakedBalances",
        "offset": 0,
        "slot": "1",
        "type": "t_mapping(t_address,t_uint256)"
      },
      {
        "astId": 287,
        "contract": "contracts/Wallet.sol:Wallet",
        "label": "stakingTimestamps",
        "offset": 0,
        "slot": "2",
        "type": "t_mapping(t_address,t_uint256)"
      }
    ],
    "types": {
      "t_address": {
        "encoding": "inplace",
        "label": "address",
        "numberOfBytes": "20"
      },
      "t_mapping(t_address,t_uint256)": {
        "encoding": "mapping",
        "key": "t_address",
        "label": "mapping(address => uint256)",
        "numberOfBytes": "32",
        "value": "t_uint256"
      },
      "t_uint256": {
        "encoding": "inplace",
        "label": "uint256",
        "numberOfBytes": "32"
      }
    }
  }
}